:030000000207CB29
:0C07CB00787FE4F6D8FD758176020812F4
:10057800D6C7C4DCB0B2C8ABB5E7CCDDCFB5CDB318
:1005880000CDC5B6D33A20CDF5B3BF6B7569202031
:100598002000202020202020D0ECCDFE202020206C
:1005A800202000202020202020C7AED3EA202020B1
:1005B80020202000D6C7C4DCB0B2C8ABB5E7CCDD7C
:1005C800202000202020202020CFB5CDB3202020BF
:1005D80020202000CDC5B6D33A20CDF5B3BF00D03A
:1005E800ECCDFE2020C7AED3EA0031002020003237
:1005F8000033003400350036003700380039003148
:100608003000313100313200D2D1B5BDB4EF2121F3
:10061800212100D4CBD0D0D6D02020C7B0CDF9002E
:10062800CAD2CEC23A2000BBF0D4D6BFECC5DC217A
:1006380000B5E7CCDDC3C5D2D1BFAA00C4EA00D457
:10064800C200C8D500CAB100B7D600C3EB00D0C7F6
:0B065800C6DA000102040808040201D9
:100A7700013B00015B05102B000000000000000097
:100A87000000000000000000023F0000085220198B
:100A9700122518000003015A00013E000A213031D7
:0C0AA7003233343536373839023C000059
:10000300EF1FAA0670011E4A600BE4FDEDC394FFC7
:0500130050EE0D80F726
:0100180022C5
:060E5700E4FF0FBF39FCAF
:010E5D002272
:100C5E00C3E56B9FEE6480F8E56A6480985017E4F4
:100C6E00FDFC0DBD00010CEDF44C70F6056BE56B53
:060C7E0070DE056A80DA59
:010C8400224D
:0A0BD200C286D2858DA07F057E004B
:0A0BDC00EF1FAC0670011E4C601DF7
:100BE600757500757619D3E5769400E5756480947D
:0D0BF6008040E3E576157670ED157580E919
:010C030022CE
:0D0E3700000000EF1F70011EEF4E70F4224E
:100D3200E4FDFCC3ED9FEC9E5015E4FBFA0BBB00F7
:0F0D4200010AEB64704A70F50DBD00010C80E4EE
:010D5100227F
:050E6400C281C2B422AE
:100B6600D2815307FEE4FEEF30E004D2B58002C224
:100B7600B5D2B4C2B4EFC313FF0EBE08EAE4FEED6D
:100B860030E004D2B58002C2B5D2B4C2B4EDC3130C
:070B9600FD0EBE08EAC2815A
:010B9D002235
:100AF000D281430701E4FDEF30E004D2B58002C2A9
:100B0000B5D2B4C2B4EFC313FF0DBD08EAE4FDEEE5
:100B1000C313FE30B505430680800353067FD2B46D
:0A0B2000C2B40DBD08E9C281AF06A2
:010B2A0022A8
:100A3100E4FD7F8E120B667D807F80120B66AD53C5
:100A41007F8C120B66AD547F88120B66AD557F8685
:100A5100120B66AD567F84120B66AD577F82120B67
:100A610066AD587F80120B66AD597F8A120B667D89
:060A7100807F8E020B667F
:100C04007F8C120AF08F537F88120AF08F547F86EC
:100C1400120AF08F557F84120AF08F567F82120ACF
:100C2400F08F577F80120AF08F587F8A120AF08F54
:020C3400592243
:0F0E1700C287D286D285E5A0339200C285A200A1
:010E260022A9
:100DC500AD077F0A7E00120BDCC287120BD2C285EB
:060DD500120BD8D28522AA
:090E4E00120E1792012001F82296
:100DDB00AD077F0A7E00120BDCD287120BD2C285C5
:060DEB00120BD8D2852294
:100C36008B728A738974AB72AA73A9741201E3600A
:100C4600160574E5747002057314F91201E3FF12B8
:080C56000DDB120BD880DF2238
:100D5200EF70047F808013BF01047F90800CBF027C
:100D6200047F888005BF03027F98EF2DFF020DC527
:1009E800D284C2837F0A7E00120BDCD2837F30124E
:1009F8000DC5120BD87F30120DC5120BD87F1812F7
:100A08000DC5120BD87F10120DC5120BD87F01121D
:100A18000DC5120BD87F06120DC5120BD87F0C120C
:090A28000DC57F057E00020BDC08
:060E5E007580FF0209E8A7
:070DF1005403FF7BFFE4FD4A
:0D0DF800120D52120C367F057E00020BDC3E
:10099B00E4F55CF55CE55C7A057978120DF1E55CC4
:1009AB00047A057989120DF1E55C24025403FF7B6F
:1009BB00FF7A05799AE4FD120DF8E55C24035403E4
:1009CB00FF7BFF7A0579ABE4FD120DF87FC87E0043
:0C09DB00120003055CE55CC3940540B904
:0109E70022ED
:100B9E007BFF7A0579BC7D01E4FF120DF87BFF7AAD
:100BAE000579CBE4FD7F01120DF87BFF7A0579DC28
:100BBE00E4FD7F02120DF87BFF7A0579E7E4FD7FF5
:040BCE0003020DF819
:10028500E52B7BFFB401067A0579F280047A0579BE
:10029500F4E4FDFF120DF8E52C7BFFB401067A05A9
:1002A50079F780047A0579F47D01E4FF120DF8E50C
:1002B5002D7BFFB401067A0579F980047A0579F476
:1002C5007D02E4FF120DF8E52E7BFFB401067A05E9
:1002D50079FB80047A0579F47D03E4FF120DF8E5D6
:1002E5002F7BFFB401067A0579FD80047A0579F440
:1002F5007D04E4FF120DF8E5307BFFB401067A05B5
:1003050079FF80047A0579F47D05E4FF120DF8E59F
:10031500317BFFB401067A06790180047A0579F408
:100325007D06E4FF120DF8E5327BFFB401067A067F
:10033500790380047A0579F47D07E4FF120DF8E569
:10034500337BFFB401067A06790580047A0579F4D2
:10035500E4FD7F01120DF8E5347BFFB401067A0652
:10036500790780047A0579F47D017F01120DF8E59E
:10037500357BFFB401067A06790A80047A0579F49B
:100385007D037F01120DF8E5367BFFB401067A0681
:10039500790D80047A0579F47D057F01120DF8E564
:1003A500377BFF702E7A067910FD7F02120DF8E576
:1003B5005B75F00A842421F8E6F562E55B75F00AC1
:1003C50084742125F0F8E6F5637B007A0079627D77
:1003D50005802D7A06791BE4FD7F02120DF8E53BB9
:1003E50075F00A842421F8E6F562E53B75F00A8488
:1003F500742125F0F8E6F5637B007A0079627D06C5
:100405007F02120DF87BFF7A0679287D017F0312A2
:100415000DF8AE3FAF407C007D0A1201FC74212F20
:10042500F8E6F562AE3FAF407C007D0A1201FC7430
:10043500212DF8E6F5637B007A0079627D037F0361
:03044500020DF8AD
:100DAC007BFF7A06792FE4FDFF120DF87BFF7A06A4
:090DBC007939E4FD7F01020DF814
:1004480074212543F8E6F56C74212544F8E6F56D2A
:1004580074212545F8E6F56E74212546F8E6F56F12
:100468007B007A00796CE4FDFF120DF87BFF7A06B9
:1004780079447D02E4FF120DF874212547F8E6F56A
:100488007074212548F8E6F5717B007A0079707D53
:1004980003E4FF120DF87BFF7A0679477D04E4FF39
:1004A800120DF874212549F8E6F5707421254AF8EB
:1004B800E6F5717B007A0079707D05E4FF120DF88E
:1004C8007BFF7A06794A7D06E4FF120DF874212530
:1004D8004BF8E6F5707421254CF8E6F5717B007A47
:1004E800007970E4FD7F01120DF87BFF7A06794DE3
:1004F8007D017F01120DF87421254DF8E6F5707421
:1005080021254EF8E6F5717B007A0079707D027F2F
:1005180001120DF87BFF7A0679507D037F01120DD9
:10052800F87421254FF8E6F57074212550F8E6F5A2
:10053800717B007A0079707D047F01120DF87BFFD2
:100548007A0679537D057F01120DF874212551F83B
:10055800E6F5707571207BFF7A067956E4FD7F0217
:10056800120DF87B007A0079707D027F02020DF887
:1008D400E4F56AF56B120C04E552C4540FF543E5D4
:1008E40052540FF544E553C4540FF545E553540FE2
:1008F400F546E554C4540FF547E554540FF548E55F
:1009040055C4540FF549E555540FF54AE556C454FA
:100914000FF54BE556540FF54CE557C4540FF54D00
:10092400E557540FF54EE558C4540FF54FE55854A8
:100934000FF5508559517F327E00120D3202044862
:100D9100E4F56AC2B77F78FE120E37D2B77F107EB4
:0B0DA10000120E377F507E00020E375C
:100C8500E4FC7D08C2B77F017E00120E37D2B7ECB7
:100C9500C313FC30B7034304807F0B7E00120E376D
:040CA500DDE2AF04D9
:010CA9002228
:020CF000AD074E
:100CF2007B08C2B7ED1392B77F0C7E00120E37D27B
:0E0D0200B7EDC313FD7F057E00120E37DBE454
:010D100022C0
:100B2B00120D917FCC120CF07F44120CF0120D9130
:100B3B007FCC120CF07FBE120CF0120C85AB07129F
:100B4B000C85EFFEEBFFFDAC06E4120129E4FBFA8A
:0A0B5B007980783D12001E1201623D
:010B6500226D
:0A0E4400C2B6120E57D2B6020E57C6
:100D7200C282E4FDFC120E440DBD00010CBC03F561
:0E0D8200BDE8F2C2B67FC87E00120003D28226
:010D90002240
:100D110075900FE590640F6015AB907590F0AA90F7
:100D21007FC87E00120C5E7590F0EB2AFF227F00D7
:010D3100229F
:10085700120D11EF607612025F08A07708B07B08CF
:10086700C07D08D07E089CB708ACBB08BCBD08CCCF
:10087700BE0898D708A8DB08B8DD08C8DE0894E7E3
:1008870008A4EB08B4ED08C4EE000008D3752B01EB
:1008970022752C0122752D0122752E0122752F013B
:1008A700227530012275310122753201227533011B
:1008B70022753401227535012275360122753701FB
:0C08C700227538012275390122753A01B2
:0108D3002202
:080E0500ED93F5B07FF47E01CE
:0A0E0D00EF1F70011E144E70F72253
:100CAA00E4F541F542E4FD90065B120E050DBD0424
:100CBA00F60542E54270020541C394F4E541940108
:020CCA0040E305
:010CCC002205
:100CCD00E4F541F542E4FD90065F120E050DBD04FD
:100CDD00F60542E54270020541C394F4E5419401E5
:020CED0040E3E2
:010CEF0022E2
:10071900755C00853B5DC3E53B955BF55FE4940043
:10072900F55E120D72C3E55E648094805038E4F57D
:1007390060F561C3E4955FFFE4955EFEC3E5619FE3
:10074900EE6480F8E5606480985014120CAAC28E99
:10075900120285D28E0561E56170D8056080D47476
:100769002A253BF8E4F6D3E55F9400E55E648094BE
:10077900804031E4F560F561C3E561955FE55E644C
:1007890080F8E5606480985014120CCDC28E120274
:1007990085D28E0561E56170DF056080DB742A25ED
:1007A9003BF8E4F6E55F455E700E742A253BF8E4F4
:1007B900F6C28E120285D28E120D72E4F537853B90
:0107C9005BD4
:0107CA00220C
:100AB400790CE4FFFE742B2EF8E664017029EE0431
:100AC400C3955BFFC3648094805004EFF404FFE992
:100AD400FDEFFB3395E0FAD3EB9D7480F86A9850F0
:0B0AE40006A907EE04F53B0EBE0CCA8D
:010AEF0022E4
:100944001209E87F327E00120D32120E647F0A1201
:100954000D32120E5E12099B120E5E120285120EE9
:1009640027E5377026120E5EE5377015C280C28EF9
:10097400120285D28E7F327E00120003120AB480E6
:10098400E7E4F53CF53DD280120E5EC28E1202857C
:07099400D28E12071980CA80
:100E2700D2AFD2AB758910758CFC758A17D28E221A
:03001B0002066377
:10066300C0E0C0F0C083C082C0D075D000C000C05D
:0D06730001C002C003C004C005C006C007DE
:10068000758CFC758A17120B2B753F008F40120872
:1006900057E537704AE55B64056044E52B7040E53B
:1006A0002C703CE52D7038E52E7034E52F7030E568
:1006B00034702CE5337028E5327024E5317020E584
:1006C00030701CE5357018E5367014053DE53D7059
:1006D00002053C640F453C7006752F01753701E536
:1006E00038B4011AE5377016120E5E1208D4056987
:0E06F000E569B40CF6756900120E5E753800EF
:1006FE00D007D006D005D004D003D002D001D00050
:0B070E00D0D0D082D083D0F0D0E032F9
:10001E00EC4D6011E8497017ED33EC3304600DE4DC
:10002E00FCFFFEFD22E933E8330470F80201CE1224
:10003E00019958046009E4CC248150062850090225
:10004E0001D82840030201D5C0E0EB4A7044B980C4
:10005E0006D0E0FB0201C4EF4E701CBD8008EBFF22
:10006E00EAFEE9FD80EBE98DF0A4FEE5F002010762
:10007E00E9CDF9EAFEEBFFEF89F0A4FCE5F0CE89BD
:10008E00F0A42EFFE435F0CD89F0A42DFEE435F07A
:10009E008067EF4E7005BD80D780C3EF8BF0A4ACA8
:1000AE00F0EE8BF0A42CFCE435F0F8EF8AF0A42CE3
:1000BE00E5F038FCE433CB8DF0A42CFCE5F03BF8F6
:1000CE00EE8AF0A42CFCE5F038F8E433CF89F0A4E6
:1000DE002CFCE5F038CF3400CE89F0A42FFFE5F0EC
:1000EE003EFEE433C98DF0A42EFEE5F039CD8AF044
:1000FE00A42FFFE5F03EFEE43DFD33D0E0FB5007BC
:10010E000BBB000F0201D8EC2CFCEF33FFEE33FEDD
:06011E00ED33FD0201B00B
:1001240075F020800E75F010800575F0087D007E56
:10013400007F003392D530D503120251EC334010C6
:10014400EF33FFEE33FEED33FDEC33FCD5F0ED225F
:0E015400E5F0247EA2D513CC92E7CDCEFF229B
:10016200EDD2E7CD33EC3392D524814006E4FFFE95
:10017200FDFC22FCE4CFCECDCC24E0501174FF80F4
:10018200EDC3CC13CCCD13CDCE13CECF13CF047091
:07019200F030D5DE0202513E
:10019900E9D2E7C933E833F892D5EDD2E7CD33ECAC
:0701A90033FC5002B2D52225
:1001B000EC30E7100FBF000C0EBE00080DBD0004B0
:1001C0000BEB6014A2D5EB13FCED92E7FD2274FF5C
:1001D000FCFDFEFF22E480F8A2D574FF13FC7D80B5
:0301E000E480EFC9
:1007D700020944E493A3F8E493A34003F68001F2EB
:1007E70008DFF48029E493A3F85407240CC8C33323
:1007F700C4540F4420C8834004F456800146F6DFF2
:10080700E4800B0102040810204080900A77E47E00
:10081700019360BCA3FF543F30E509541FFEE493E6
:10082700A360010ECF54C025E060A840B8E493A3AD
:10083700FAE493A3F8E493A3C8C582C8CAC583CAD8
:10084700F0A3C8C582C8CAC583CADFE9DEE780BE90
:010AB3000042
:1001E300BB010689828A83E0225002E722BBFE021A
:0901F300E32289828A83E493224D
:1001FC00BC000BBE0029EF8DF084FFADF022E4CCE7
:10020C00F875F008EF2FFFEE33FEEC33FCEE9DECAF
:10021C00984005FCEE9DFE0FD5F0E9E4CEFD22EDF5
:10022C00F8F5F0EE8420D21CFEADF075F008EF2F3F
:10023C00FFED33FD4007985006D5F0F222C398FD30
:05024C000FD5F0EA22CD
:0E025100C3E49FFFE49EFEE49DFDE49CFC22BE
:10025F00D083D082F8E4937012740193700DA3A32E
:10026F0093F8740193F5828883E473740293686042
:06027F00EFA3A3A380DF42
:00000001FF
